:100A4800000000000000000000000000000000009E
:100A5800000000000000000000000000000000008E
:100A6800000000000000000000000000000000007E
:030A78000000007B
:1008000078087C007D007BFF7A0A79487E007F3380
:10081000120A00120AC4EF60097B007A00790812FC
:100820000AA5120AE2AF08120B50AF09120B50AF23
:100830000A120B50AF0B120B50AF0C120B50AF0D36
:10084000120B50AF0E120B50AF0F120B50AF101215
:100850000B50AF11120B50AF12120B50AF13120B03
:1008600050AF14120B50AF15120B50AF16120B50A5
:10087000AF17120B507FC0120B46AF18120B50AFC0
:1008800019120B50AF1A120B50AF1B120B50AF1CAA
:10089000120B50AF1D120B50AF1E120B50AF1F1298
:1008A0000B50AF20120B50AF21120B50AF22120B86
:1008B00050AF23120B50AF24120B50AF25120B5028
:1008C000AF26120B50AF27120B50120B21120B2127
:1008D000120B21120B21120B217F01120B46AF28A4
:1008E000120B50AF29120B50AF2A120B50AF2B1224
:1008F0000B50AF2C120B50AF2D120B50AF2E120B12
:1009000050AF2F120B50AF30120B50AF31120B50B3
:10091000AF32120B50AF33120B50AF34120B50AF3B
:1009200035120B50AF36120B50AF37120B5080FE02
:0B0B3B000000000000000000DFF622B8
:0D0B21007FA77EAB7D10DDFEDEFADFF60063
:010B2E0022A4
:090B0F00120B18120B18120B183E
:080B18007F017E01DEFEDFFA21
:010B200022B2
:100AC400C2907F34120B3BD2907F03120B3B2090D9
:0E0AD400FDA290B340FB7F0A120B3B7F012274
:100AFB00A290B340FB120B0F309006120B0F7F31FD
:040B0B00227F3022F3
:060AA5008B3B8A3C893DF9
:100AAB00E4FD120AFBAB3BAA3CA93D8D827583008A
:080ABB00EF120A260DBD32EA1C
:010AC3002210
:100A7B00C2A58F807F017E00120A8CD2A77F057ED4
:010A8B00006A
:100A8C00D3EF9400EE9400400F7DC77C01DCFEDDBB
:080A9C00FAEF1F70EB1E80E869
:010AA400222F
:0A0B4600C2A7C2A6120A7BC2A722B2
:0A0B5000C2A7D2A6120A7BC2A72298
:100AE2007F38120B467F0C120B467F06120B467F95
:090AF20001120B467F80020B4645
:03000000020B2FC1
:0C0B2F00787FE4F6D8FD75813D020800D7
:10093000E709F608DFFA8046E709F208DFFA803EA9
:1009400088828C83E709F0A3DFFA8032E309F60896
:10095000DFFA8078E309F208DFFA807088828C83FE
:10096000E309F0A3DFFA806489828A83E0A3F608B2
:10097000DFFA805889828A83E0A3F208DFFA804C8C
:1009800080D280FA80C680D4806980F28033801063
:1009900080A680EA809A80A880DA80E280CA8033CC
:1009A00089828A83ECFAE493A3C8C582C8CCC58344
:1009B000CCF0A3C8C582C8CCC583CCDFE9DEE78014
:1009C0000D89828A83E493A3F608DFF9ECFAA9F093
:1009D000EDFB2289828A83ECFAE0A3C8C582C8CCE9
:1009E000C583CCF0A3C8C582C8CCC583CCDFEADE02
:1009F000E880DB89828A83E493A3F208DFF980CC64
:100A000088F0EF60010E4E60C388F0ED2402B4045C
:100A10000050B9F582EB2402B4040050AF23234503
:060A20008223900980739F
:100A2600F8BB010DE58229F582E5833AF583E8F006
:100A3600225006E92582C8F622BBFE05E92582C8B2
:020A4600F2229A
:00000001FF
